{
  "contractName": "Youtube",
  "abi": [
    {
      "inputs": [],
      "stateMutability": "nonpayable",
      "type": "constructor"
    },
    {
      "anonymous": false,
      "inputs": [
        {
          "indexed": false,
          "internalType": "uint256",
          "name": "id",
          "type": "uint256"
        },
        {
          "indexed": false,
          "internalType": "string",
          "name": "hash",
          "type": "string"
        },
        {
          "indexed": false,
          "internalType": "string",
          "name": "title",
          "type": "string"
        },
        {
          "indexed": false,
          "internalType": "address",
          "name": "sender",
          "type": "address"
        }
      ],
      "name": "VideoAdded",
      "type": "event"
    },
    {
      "inputs": [],
      "name": "name",
      "outputs": [
        {
          "internalType": "string",
          "name": "",
          "type": "string"
        }
      ],
      "stateMutability": "view",
      "type": "function",
      "constant": true
    },
    {
      "inputs": [],
      "name": "owner",
      "outputs": [
        {
          "internalType": "address",
          "name": "",
          "type": "address"
        }
      ],
      "stateMutability": "view",
      "type": "function",
      "constant": true
    },
    {
      "inputs": [],
      "name": "videoCount",
      "outputs": [
        {
          "internalType": "uint256",
          "name": "",
          "type": "uint256"
        }
      ],
      "stateMutability": "view",
      "type": "function",
      "constant": true
    },
    {
      "inputs": [
        {
          "internalType": "uint256",
          "name": "",
          "type": "uint256"
        }
      ],
      "name": "videos",
      "outputs": [
        {
          "internalType": "uint256",
          "name": "id",
          "type": "uint256"
        },
        {
          "internalType": "string",
          "name": "hash",
          "type": "string"
        },
        {
          "internalType": "string",
          "name": "title",
          "type": "string"
        },
        {
          "internalType": "address",
          "name": "author",
          "type": "address"
        }
      ],
      "stateMutability": "view",
      "type": "function",
      "constant": true
    },
    {
      "inputs": [
        {
          "internalType": "string",
          "name": "_videoHash",
          "type": "string"
        },
        {
          "internalType": "string",
          "name": "_title",
          "type": "string"
        }
      ],
      "name": "uploadVideo",
      "outputs": [],
      "stateMutability": "nonpayable",
      "type": "function"
    }
  ],
  "bytecode": "0x60806040526040518060400160405280600781526020017f596f7574756265000000000000000000000000000000000000000000000000008152506002908051906020019061004f9291906100a3565b5034801561005c57600080fd5b5033600160006101000a81548173ffffffffffffffffffffffffffffffffffffffff021916908373ffffffffffffffffffffffffffffffffffffffff1602179055506101a6565b8280546100af90610175565b90600052602060002090601f0160209004810192826100d15760008555610118565b82601f106100ea57805160ff1916838001178555610118565b82800160010185558215610118579182015b828111156101175782518255916020019190600101906100fc565b5b5090506101259190610129565b5090565b5b8082111561014257600081600090555060010161012a565b5090565b7f4e487b7100000000000000000000000000000000000000000000000000000000600052602260045260246000fd5b6000600282049050600182168061018d57607f821691505b6020821081036101a05761019f610146565b5b50919050565b610b2c806101b56000396000f3fe608060405234801561001057600080fd5b50600436106100575760003560e01c806306fdde031461005c5780638a5447c51461007a5780638da5cb5b14610096578063c61b5f4c146100b4578063e6821bf5146100d2575b600080fd5b610064610105565b604051610071919061061a565b60405180910390f35b610094600480360381019061008f9190610785565b610193565b005b61009e610352565b6040516100ab919061083e565b60405180910390f35b6100bc610378565b6040516100c99190610872565b60405180910390f35b6100ec60048036038101906100e791906108b9565b61037e565b6040516100fc94939291906108e6565b60405180910390f35b6002805461011290610968565b80601f016020809104026020016040519081016040528092919081815260200182805461013e90610968565b801561018b5780601f106101605761010080835404028352916020019161018b565b820191906000526020600020905b81548152906001019060200180831161016e57829003601f168201915b505050505081565b60008251116101d7576040517f08c379a00000000000000000000000000000000000000000000000000000000081526004016101ce906109e5565b60405180910390fd5b600081511161021b576040517f08c379a000000000000000000000000000000000000000000000000000000000815260040161021290610a51565b60405180910390fd5b600160008082825461022d9190610aa0565b92505081905550604051806080016040528060005481526020018381526020018281526020013373ffffffffffffffffffffffffffffffffffffffff1681525060036000805481526020019081526020016000206000820151816000015560208201518160010190805190602001906102a79291906104de565b5060408201518160020190805190602001906102c49291906104de565b5060608201518160030160006101000a81548173ffffffffffffffffffffffffffffffffffffffff021916908373ffffffffffffffffffffffffffffffffffffffff1602179055509050507f9433ffdeca82850c67e06f87093c1864eb8248af15e8319322271c07c7e2966460005483833360405161034694939291906108e6565b60405180910390a15050565b600160009054906101000a900473ffffffffffffffffffffffffffffffffffffffff1681565b60005481565b60036020528060005260406000206000915090508060000154908060010180546103a790610968565b80601f01602080910402602001604051908101604052809291908181526020018280546103d390610968565b80156104205780601f106103f557610100808354040283529160200191610420565b820191906000526020600020905b81548152906001019060200180831161040357829003601f168201915b50505050509080600201805461043590610968565b80601f016020809104026020016040519081016040528092919081815260200182805461046190610968565b80156104ae5780601f10610483576101008083540402835291602001916104ae565b820191906000526020600020905b81548152906001019060200180831161049157829003601f168201915b5050505050908060030160009054906101000a900473ffffffffffffffffffffffffffffffffffffffff16905084565b8280546104ea90610968565b90600052602060002090601f01602090048101928261050c5760008555610553565b82601f1061052557805160ff1916838001178555610553565b82800160010185558215610553579182015b82811115610552578251825591602001919060010190610537565b5b5090506105609190610564565b5090565b5b8082111561057d576000816000905550600101610565565b5090565b600081519050919050565b600082825260208201905092915050565b60005b838110156105bb5780820151818401526020810190506105a0565b838111156105ca576000848401525b50505050565b6000601f19601f8301169050919050565b60006105ec82610581565b6105f6818561058c565b935061060681856020860161059d565b61060f816105d0565b840191505092915050565b6000602082019050818103600083015261063481846105e1565b905092915050565b6000604051905090565b600080fd5b600080fd5b600080fd5b600080fd5b7f4e487b7100000000000000000000000000000000000000000000000000000000600052604160045260246000fd5b610692826105d0565b810181811067ffffffffffffffff821117156106b1576106b061065a565b5b80604052505050565b60006106c461063c565b90506106d08282610689565b919050565b600067ffffffffffffffff8211156106f0576106ef61065a565b5b6106f9826105d0565b9050602081019050919050565b82818337600083830152505050565b6000610728610723846106d5565b6106ba565b90508281526020810184848401111561074457610743610655565b5b61074f848285610706565b509392505050565b600082601f83011261076c5761076b610650565b5b813561077c848260208601610715565b91505092915050565b6000806040838503121561079c5761079b610646565b5b600083013567ffffffffffffffff8111156107ba576107b961064b565b5b6107c685828601610757565b925050602083013567ffffffffffffffff8111156107e7576107e661064b565b5b6107f385828601610757565b9150509250929050565b600073ffffffffffffffffffffffffffffffffffffffff82169050919050565b6000610828826107fd565b9050919050565b6108388161081d565b82525050565b6000602082019050610853600083018461082f565b92915050565b6000819050919050565b61086c81610859565b82525050565b60006020820190506108876000830184610863565b92915050565b61089681610859565b81146108a157600080fd5b50565b6000813590506108b38161088d565b92915050565b6000602082840312156108cf576108ce610646565b5b60006108dd848285016108a4565b91505092915050565b60006080820190506108fb6000830187610863565b818103602083015261090d81866105e1565b9050818103604083015261092181856105e1565b9050610930606083018461082f565b95945050505050565b7f4e487b7100000000000000000000000000000000000000000000000000000000600052602260045260246000fd5b6000600282049050600182168061098057607f821691505b60208210810361099357610992610939565b5b50919050565b7f53686f756c642068617665206120686173680000000000000000000000000000600082015250565b60006109cf60128361058c565b91506109da82610999565b602082019050919050565b600060208201905081810360008301526109fe816109c2565b9050919050565b7f53686f756c6420686176652061207469746c6500000000000000000000000000600082015250565b6000610a3b60138361058c565b9150610a4682610a05565b602082019050919050565b60006020820190508181036000830152610a6a81610a2e565b9050919050565b7f4e487b7100000000000000000000000000000000000000000000000000000000600052601160045260246000fd5b6000610aab82610859565b9150610ab683610859565b9250827fffffffffffffffffffffffffffffffffffffffffffffffffffffffffffffffff03821115610aeb57610aea610a71565b5b82820190509291505056fea26469706673582212207aee104305648266709ed3543a77bdadd81e5618e5c51e5be5c0862ad53b12e564736f6c634300080d0033",
  "immutableReferences": {},
  "source": "// SPDX-License-Identifier: MIT\npragma solidity >=0.4.22 <0.9.0;\n\ncontract Youtube {\n  uint public videoCount;\n  address public owner;\n  string public name = \"Youtube\";\n\n  struct Video {\n    uint id;\n    string hash;\n    string title;\n    address author;\n  }\n\n  mapping(uint => Video) public videos;\n\n  constructor()  {\n    owner = msg.sender;\n  }\n\n  event VideoAdded(uint id, string hash, string title, address sender);\n\n  function uploadVideo(string memory _videoHash, string memory _title) public {\n    require(bytes(_videoHash).length > 0, \"Should have a hash\");\n    require(bytes(_title).length > 0, \"Should have a title\");\n\n    videoCount += 1;\n    videos[videoCount] = Video(videoCount, _videoHash, _title, msg.sender);\n\n    emit VideoAdded(videoCount, _videoHash, _title, msg.sender);\n  }\n}\n",
  "sourcePath": "/Users/danielancuta/Development/blockchain/truffle-react-youtube-app/src/contracts/Youtube.sol",
  "compiler": {
    "name": "solc",
    "version": "0.8.13+commit.abaa5c0e.Emscripten.clang"
  },
  "schemaVersion": "3.4.10",
  "updatedAt": "2022-09-29T15:37:13.129Z",
  "networkType": "ethereum",
  "devdoc": {
    "kind": "dev",
    "methods": {},
    "version": 1
  },
  "userdoc": {
    "kind": "user",
    "methods": {},
    "version": 1
  }
}